{
  "contractName": "IDMS",
  "abi": [
    {
      "constant": true,
      "inputs": [],
      "name": "StudentCount",
      "outputs": [
        {
          "name": "",
          "type": "uint256"
        }
      ],
      "payable": false,
      "stateMutability": "view",
      "type": "function"
    },
    {
      "constant": true,
      "inputs": [
        {
          "name": "",
          "type": "uint256"
        }
      ],
      "name": "StudentId",
      "outputs": [
        {
          "name": "StudentName",
          "type": "string"
        },
        {
          "name": "Age",
          "type": "uint256"
        }
      ],
      "payable": false,
      "stateMutability": "view",
      "type": "function"
    },
    {
      "inputs": [],
      "payable": false,
      "stateMutability": "nonpayable",
      "type": "constructor"
    },
    {
      "constant": false,
      "inputs": [
        {
          "name": "_name",
          "type": "string"
        },
        {
          "name": "_age",
          "type": "uint256"
        }
      ],
      "name": "addStudent",
      "outputs": [],
      "payable": false,
      "stateMutability": "nonpayable",
      "type": "function"
    },
    {
      "constant": true,
      "inputs": [],
      "name": "getName",
      "outputs": [
        {
          "name": "",
          "type": "string"
        }
      ],
      "payable": false,
      "stateMutability": "view",
      "type": "function"
    }
  ],
  "bytecode": "0x608060405234801561001057600080fd5b506100606040805190810160405280600381526020017f416d79000000000000000000000000000000000000000000000000000000000081525060156100b4640100000000026401000000009004565b6100af6040805190810160405280600581526020017f4164616d7300000000000000000000000000000000000000000000000000000081525060166100b4640100000000026401000000009004565b6101c2565b6001600081548092919060010191905055506040805190810160405280838152602001828152506000806001548152602001908152602001600020600082015181600001908051906020019061010b92919061011d565b50602082015181600101559050505050565b828054600181600116156101000203166002900490600052602060002090601f016020900481019282601f1061015e57805160ff191683800117855561018c565b8280016001018555821561018c579182015b8281111561018b578251825591602001919060010190610170565b5b509050610199919061019d565b5090565b6101bf91905b808211156101bb5760008160009055506001016101a3565b5090565b90565b6104f3806101d16000396000f300608060405260043610610062576000357c0100000000000000000000000000000000000000000000000000000000900463ffffffff1680630e5eeef71461006757806317d7de7c146100da5780634973ccfb1461016a578063a9317c9314610195575b600080fd5b34801561007357600080fd5b506100d8600480360381019080803590602001908201803590602001908080601f016020809104026020016040519081016040528093929190818152602001838380828437820191505050505050919291929080359060200190929190505050610242565b005b3480156100e657600080fd5b506100ef6102ab565b6040518080602001828103825283818151815260200191508051906020019080838360005b8381101561012f578082015181840152602081019050610114565b50505050905090810190601f16801561015c5780820380516001836020036101000a031916815260200191505b509250505060405180910390f35b34801561017657600080fd5b5061017f610360565b6040518082815260200191505060405180910390f35b3480156101a157600080fd5b506101c060048036038101908080359060200190929190505050610366565b6040518080602001838152602001828103825284818151815260200191508051906020019080838360005b838110156102065780820151818401526020810190506101eb565b50505050905090810190601f1680156102335780820380516001836020036101000a031916815260200191505b50935050505060405180910390f35b60016000815480929190600101919050555060408051908101604052808381526020018281525060008060015481526020019081526020016000206000820151816000019080519060200190610299929190610422565b50602082015181600101559050505050565b60606000808081526020019081526020016000206000018054600181600116156101000203166002900480601f0160208091040260200160405190810160405280929190818152602001828054600181600116156101000203166002900480156103565780601f1061032b57610100808354040283529160200191610356565b820191906000526020600020905b81548152906001019060200180831161033957829003601f168201915b5050505050905090565b60015481565b6000602052806000526040600020600091509050806000018054600181600116156101000203166002900480601f0160208091040260200160405190810160405280929190818152602001828054600181600116156101000203166002900480156104125780601f106103e757610100808354040283529160200191610412565b820191906000526020600020905b8154815290600101906020018083116103f557829003601f168201915b5050505050908060010154905082565b828054600181600116156101000203166002900490600052602060002090601f016020900481019282601f1061046357805160ff1916838001178555610491565b82800160010185558215610491579182015b82811115610490578251825591602001919060010190610475565b5b50905061049e91906104a2565b5090565b6104c491905b808211156104c05760008160009055506001016104a8565b5090565b905600a165627a7a723058200cc55d41ee4fa46d13f3d61bf8a6f2c9cb97813f4274b6e32e8f0dd35602ebc30029",
  "source": "pragma solidity ^0.4.19;\r\n/**\r\n * The contractName contract does this and that...\r\n */\r\n\r\n \r\ncontract IDMS {\r\n\t\r\n\t\r\n\tstruct StudentProfile{\r\n\t\tstring StudentName;\r\n\t\tuint Age;\r\n\t\t//uint CGPA;\r\n\r\n\t}\r\n\r\n\tmapping(uint => StudentProfile)public StudentId;\r\n\tuint public StudentCount;\r\n\r\n\r\n\tconstructor () public {\t\r\n\t\taddStudent(\"Amy\",21);\r\n\t\taddStudent(\"Adams\",22);\r\n\t\t\t\r\n\t}\r\n\r\n\tfunction addStudent(string _name, uint _age) public\r\n\t{\r\n\t\tStudentCount++;\r\n\t\tStudentId[StudentCount] = StudentProfile(_name,_age);\r\n\t}\r\n\r\n\tfunction getName() public view returns(string){\r\n\t\treturn StudentId[0].StudentName;\r\n\r\n\t}\r\n}",
  "sourcePath": "C:\\Users\\Ameya\\Documents\\BlockChain\\IDMS\\contracts\\IDMS.sol",
  "compiler": {
    "name": "solc",
    "version": "0.4.24+commit.e67f0147.Emscripten.clang"
  },
  "schemaVersion": "2.0.1",
  "updatedAt": "2018-12-20T13:43:59.829Z"
}